{
  "contractName": "Coinflip",
  "abi": [
    {
      "anonymous": false,
      "inputs": [
        {
          "indexed": false,
          "internalType": "bool",
          "name": "betHead",
          "type": "bool"
        },
        {
          "indexed": false,
          "internalType": "bool",
          "name": "isHead",
          "type": "bool"
        },
        {
          "indexed": false,
          "internalType": "bool",
          "name": "winGame",
          "type": "bool"
        },
        {
          "indexed": false,
          "internalType": "uint256",
          "name": "payout",
          "type": "uint256"
        }
      ],
      "name": "gamePlayed",
      "type": "event"
    },
    {
      "constant": true,
      "inputs": [],
      "name": "balance",
      "outputs": [
        {
          "internalType": "uint256",
          "name": "",
          "type": "uint256"
        }
      ],
      "payable": false,
      "stateMutability": "view",
      "type": "function"
    },
    {
      "constant": false,
      "inputs": [],
      "name": "flipHead",
      "outputs": [
        {
          "internalType": "bool",
          "name": "",
          "type": "bool"
        }
      ],
      "payable": false,
      "stateMutability": "nonpayable",
      "type": "function"
    },
    {
      "constant": true,
      "inputs": [],
      "name": "owner",
      "outputs": [
        {
          "internalType": "address",
          "name": "",
          "type": "address"
        }
      ],
      "payable": false,
      "stateMutability": "view",
      "type": "function"
    },
    {
      "constant": false,
      "inputs": [
        {
          "internalType": "bool",
          "name": "betHead",
          "type": "bool"
        }
      ],
      "name": "doCoinFlip",
      "outputs": [],
      "payable": true,
      "stateMutability": "payable",
      "type": "function"
    },
    {
      "constant": false,
      "inputs": [],
      "name": "incBalance",
      "outputs": [],
      "payable": true,
      "stateMutability": "payable",
      "type": "function"
    },
    {
      "constant": false,
      "inputs": [],
      "name": "withdrawAll",
      "outputs": [
        {
          "internalType": "uint256",
          "name": "",
          "type": "uint256"
        }
      ],
      "payable": false,
      "stateMutability": "nonpayable",
      "type": "function"
    }
  ],
  "bytecode": "0x6080604052336000806101000a81548173ffffffffffffffffffffffffffffffffffffffff021916908373ffffffffffffffffffffffffffffffffffffffff1602179055506104be806100536000396000f3fe6080604052600436106100555760003560e01c80637a5982131461005a578063853828b6146100895780638da5cb5b146100b4578063b0729fe11461010b578063b69ef8a814610115578063e4959fd414610140575b600080fd5b34801561006657600080fd5b5061006f610170565b604051808215151515815260200191505060405180910390f35b34801561009557600080fd5b5061009e61019c565b6040518082815260200191505060405180910390f35b3480156100c057600080fd5b506100c9610254565b604051808273ffffffffffffffffffffffffffffffffffffffff1673ffffffffffffffffffffffffffffffffffffffff16815260200191505060405180910390f35b610113610279565b005b34801561012157600080fd5b5061012a610299565b6040518082815260200191505060405180910390f35b61016e6004803603602081101561015657600080fd5b8101908080351515906020019092919050505061029f565b005b6000806002428161017d57fe5b0690506000811415610193576000915050610199565b60019150505b90565b60008060009054906101000a900473ffffffffffffffffffffffffffffffffffffffff1673ffffffffffffffffffffffffffffffffffffffff163373ffffffffffffffffffffffffffffffffffffffff16146101f757600080fd5b6000600154905060006001819055503373ffffffffffffffffffffffffffffffffffffffff166108fc829081150290604051600060405180830381858888f1935050505015801561024c573d6000803e3d6000fd5b508091505090565b6000809054906101000a900473ffffffffffffffffffffffffffffffffffffffff1681565b600034101561028757600080fd5b34600160008282540192505081905550565b60015481565b670de0b6b3a764000067016345785d8a00008134111580156102c15750803410155b6102ca57600080fd5b6001543411156102d957600080fd5b346001600082825401925050819055506102f1610454565b83816000019015159081151581525050610309610170565b8160200190151590811515815250503481604001818152505061033481600001518260200151610432565b816080019015159081151581525050600115158160800151151514156103b55780604001516002028160600181815250503373ffffffffffffffffffffffffffffffffffffffff166108fc82606001519081150290604051600060405180830381858888f193505050501580156103af573d6000803e3d6000fd5b506103c1565b60008160600181815250505b7fbe44d7fdc9f636e853ab4b25a92e55f704d7beb82048aa72b166e85976dc67b481600001518260200151836080015184606001516040518085151515158152602001841515151581526020018315151515815260200182815260200194505050505060405180910390a150505050565b60008115158315151415610449576001905061044e565b600090505b92915050565b6040518060a001604052806000151581526020016000151581526020016000815260200160008152602001600015158152509056fea265627a7a723158204aefba3321caa4d3c8b3a4044bc1c9d09a246f1c0849a89b66aa1910ee89a79264736f6c634300050c0032",
  "source": "pragma solidity 0.5.12;\nimport \"./Ownable.sol\";\nimport \"./Random.sol\";\n\ncontract Coinflip is Ownable, Random{\n\nstruct Game {\n  bool betHead;\n  bool isHead;\n  uint betSize;\n  uint payAmount;\n  bool winGame;\n}\n\n  uint public balance;\n\n  modifier betable(uint max,uint min){\n      require(msg.value <= max && msg.value >= min);\n      require(msg.value <= balance);\n      _;\n  }\n\n  modifier pay(){\n      require(msg.value >= 0);\n      _;\n  }\n\n  event gamePlayed( bool betHead, bool isHead, bool winGame, uint payout);\n\n\n  function doCoinFlip( bool betHead ) public payable betable(1 ether, 0.1 ether){\n    balance += msg.value;\n    Game memory newGame;\n    newGame.betHead = betHead;\n    newGame.isHead = flipHead();\n    newGame.betSize = msg.value;\n    newGame.winGame = didWin( newGame.betHead, newGame.isHead);\n    if(newGame.winGame == true){\n      newGame.payAmount = 2 * newGame.betSize;\n      msg.sender.transfer(newGame.payAmount);\n\n    }\n    else{\n      newGame.payAmount = 0;\n    }\n\n    emit gamePlayed( newGame.betHead, newGame.isHead, newGame.winGame, newGame.payAmount );\n\n  }\n\n  function incBalance() public payable pay(){\n    balance += msg.value;\n\n  }\n  function withdrawAll() public onlyOwner returns(uint) {\n      uint toTransfer = balance;\n      balance = 0;\n      msg.sender.transfer(toTransfer);\n      return toTransfer;\n  }\n\n  function didWin( bool betHead, bool isHead ) private returns( bool ){\n    if( betHead == isHead ){\n      return true;\n    }\n    else{\n      return false;\n    }\n  }\n\n  function payout( uint betsize ) private returns(bool){\n\n\n  }\n\n}\n",
  "sourcePath": "/home/ape/backup/ivanontech/academy/smart_contracts_advanced/BettingDapp/contracts/Coinflip.sol",
  "compiler": {
    "name": "solc",
    "version": "0.5.12+commit.7709ece9.Emscripten.clang"
  },
  "schemaVersion": "3.0.16",
  "updatedAt": "2020-10-05T10:06:27.178Z",
  "devdoc": {
    "methods": {}
  },
  "userdoc": {
    "methods": {}
  }
}