{
  "contractName": "Random",
  "abi": [
    {
      "constant": false,
      "inputs": [],
      "name": "flipHead",
      "outputs": [
        {
          "internalType": "bool",
          "name": "",
          "type": "bool"
        }
      ],
      "payable": false,
      "stateMutability": "nonpayable",
      "type": "function"
    }
  ],
  "bytecode": "0x608060405234801561001057600080fd5b5060ab8061001f6000396000f3fe6080604052348015600f57600080fd5b506004361060285760003560e01c80637a59821314602d575b600080fd5b6033604d565b604051808215151515815260200191505060405180910390f35b60008060024281605957fe5b0690506000811415606d5760009150506073565b60019150505b9056fea265627a7a72315820199ebe1c80f1214091e606990223bbbefcca8d89ed60bd0e758993366092166f64736f6c634300050c0032",
  "source": "pragma solidity 0.5.12;\n\n\ncontract Random{\n\n  function flipHead() public returns( bool ){\n    uint flip = now % 2;\n    if( flip == 0 ){\n      return false;\n    }\n    else{\n      return true;\n    }\n  }\n\n}\n",
  "sourcePath": "/home/ape/backup/ivanontech/academy/smart_contracts_advanced/BettingDapp/contracts/Random.sol",
  "compiler": {
    "name": "solc",
    "version": "0.5.12+commit.7709ece9.Emscripten.clang"
  },
  "schemaVersion": "3.0.16",
  "updatedAt": "2020-10-05T10:06:26.887Z",
  "devdoc": {
    "methods": {}
  },
  "userdoc": {
    "methods": {}
  }
}